:020000040800F2
:100000004875002005030008556E00080D600008C3
:10001000516E0008291A0008297D00080000000020
:10002000000000000000000000000000416F000818
:10003000FD1C000800000000D16E0008756F00086C
:100040001F0300081F0300081F0300081F03000808
:100050001F0300081F0300081F0300081F030008F8
:100060001F0300081F0300081F030008A51A00084B
:10007000B51A0008C51A0008D51A0008E51A0008C4
:100080001F030008F51A00081F0300083D1A0008A6
:100090002D1A00081F0300081F0300081F03000893
:1000A0001F0300081F0300081F0300081F030008A8
:1000B0001F0300081F0300081F0300081F03000898
:1000C0001F0300081F0300081F0300081F03000888
:1000D0001F0300081F0300081F0300081F03000878
:1000E0001F0300081F0300081F0300081F03000868
:1000F0001F030008857000081F030008051B000887
:100100001F0300081F0300081F0300081F03000847
:100110001F0300081F030008757000081F03000874
:100120001F030008151B0008251B00081F030008FB
:10013000351B00081F0300081F0300081F030008E9
:100140001F0300081F0300081F0300081F03000807
:100150001F030008451B0008551B00081F0300086B
:100160001F0300081F0300081F0300081F030008E7
:100170001F0300081F0300081F0300080000000001
:100180001F0300081F0300081F0300081F030008C7
:100190001F0300081F0300081F0300081F030008B7
:1001A00000000000000000001F03000800F002F83B
:1001B00000F098F80AA090E8000C82448344AAF169
:1001C0000107DA4501D100F08DF8AFF2090EBAE867
:1001D0000F0013F0010F18BFFB1A43F0010318477B
:1001E000C8CA0000E8CA0000103A24BF78C878C125
:1001F000FAD8520724BF30C830C144BF04680C602D
:10020000704700000023002400250026103A28BF74
:1002100078C1FBD8520728BF30C148BF0B60704778
:100220006E2900F0C182702900F00B8466290CF061
:10023000808365290CF07D8367290CF07A8361291E
:100240000CF0798303681B0A28BF41F080016929FB
:1002500000F06E82642900F06B82752900F06882DC
:100260006F2900F09983782900F0D783E92900F0FD
:100270003383E42900F03083F52900F02D83EF2942
:1002800000F09683F82900F0D6830368DB0928BFC5
:1002900041F08001632901F06181732901F06681D9
:1002A000E32901F07181F32901F076810020704784
:1002B0001FB50CF031FB9DE8030000F0E5FC01F0F8
:1002C000C5F90400002000210CF0CCF9401C60604E
:1002D000002000210CF0B0F9E06000F05FF91FBDD4
:1002E00010B510BD01F085F91146FFF7E1FF08F0E8
:1002F0001DFF01F07BFA03B4FFF7F2FF03BC00F02F
:10030000A1FC00000948804709480047FEE7FEE7D6
:10031000FEE7FEE7FEE7FEE7FEE7FEE7FEE7FEE7B5
:1003200004480549054A064B704700006170000803
:10033000AD010008485B002048750020486D002092
:10034000486D002053EA020C00F069802DE9F04B63
:100350004FF00006002B1FBFB3FA83F503FA05F434
:1003600024FA05F65E4012BF1643B2FA82F502FA8D
:1003700005F4C5F120051EBF22FA05FC44EA0C0471
:10038000203556EA044C4FEA144418BF641C4FF061
:1003900000084FF00009904271EB030C39D300299B
:1003A00019BFB1FA81F701FA07F6B0FA80F700FA3F
:1003B00007F6C7F120071EBF20FA07FC46EA0C0625
:1003C0002037B6FBF4FCA7EB0507103F07F01F0B27
:1003D000CBF120062CFA06F60CFA0BFB44BFB34611
:1003E0000026202FA4BF5E464FF0000B5BEA060CF0
:1003F00008BF4FF0010B19EB0B0948EB0608ABFBEC
:10040000027C06FB02CC0BFB03CCC01B71EB0C0186
:10041000C1E70B46024641464846BDE8F08B13B59E
:10042000084318BF4FF0FF300146AFF30080BDE82E
:100430001C4070477CB51D4616460C00009001D04C
:100440002044401E074B7B442A46694601903046B3
:1004500000F0C3F905461CB10020694600F0D0F950
:1004600028467CBDC1030000032A40F2308010F012
:10047000030C00F0158011F8013BBCF1020F62443F
:1004800098BF11F801CB00F8013B38BF11F8013BD0
:10049000A2F1040298BF00F801CB38BF00F8013B7D
:1004A00011F0030300F09C83083AC0F0088051F873
:1004B000043B083A51F804CBA0E80810F5E7121DF8
:1004C0005CBF51F8043B40F8043BAFF30080D20717
:1004D00024BF11F8013B11F801CB48BF11F8012BE3
:1004E00024BF00F8013B00F801CB48BF00F8012B06
:1004F000704702F0FF0343EA032242EA024200F09F
:1005000024B84FF000020429C0F0128010F0030C50
:1005100000F01B80CCF1040CBCF1020F18BF00F8F6
:10052000012BA8BF20F8022BA1EB0C0100F00DB8A5
:100530005FEAC17C24BF00F8012B00F8012B48BF03
:1005400000F8012B70474FF0000200B513469446A7
:100550009646203922BFA0E80C50A0E80C50B1F11B
:100560002001BFF4F7AF090728BFA0E80C5048BF2F
:100570000CC05DF804EB890028BF40F8042B08BFCD
:10058000704748BF20F8022B11F0804F18BF00F8C9
:10059000012B7047704770477047000070B5064CDC
:1005A0007C44064D7D4404E02046016808448047B1
:1005B000241DAC42F8D170BD50C8000050C80000E6
:1005C00070B5064600F044FB056806F10B0020F00C
:1005D0000704B4429CBF002070BD2B466A68BAB1C4
:1005E0001068A04210D304F1080188423CBF506853
:1005F000586007D35168101941601168091B0160E8
:1006000058601460101D70BD13465268002AE7D16F
:100610002146284600F024FB0028DED170BD70B5CD
:100620000446051F00F014FB0068002C14BF44684A
:1006300070BD002C18BFAC423CBF20466468F8D3A4
:1006400001680A18AA4218BF456003D12A68054606
:100650001144016028684119A1421CBF6C6070BD43
:100660006168696021680844286070BD70B50446FF
:1006700085690068C10601D5302600E02026C00744
:1006800007D070BDD4E9012130469047206A401C54
:1006900020626D1EF6D570BD70B504468569007880
:1006A000C00707D170BDD4E9012120209047206AFE
:1006B000401C20626D1EF6D570BD09684A0501D543
:1006C00040B27047C905FCD500B2704709684A05B9
:1006D00001D5C0B27047C905FCD580B2704770B56E
:1006E0000C460546012A05D02878800600D5EA691F
:1006F000002302E0012305E05B1C934202D2E05C90
:100700000028F9D1A869E618C01AA861286A184417
:1007100028622846FFF7AAFF04E0D5E9012114F872
:10072000010B9047B442F8D32846FFF7B5FF70BDE0
:100730002DE9F0410646002410687529314616A5BA
:1007400010D0FFF7BAFF002802DA404213A507E0F5
:1007500031688A0701D512A502E0490704D511A521
:10076000012401E0FFF7B2FF00210A2206F124076D
:1007700009E0B0FBF2FCB0FBF2F302FB1C003030EE
:1007800078541846491C0028F3D123462A4630469F
:10079000BDE8F04100F0F3BA000000002D000000B9
:1007A0002B0000002000000011680268006A530559
:1007B00001D508700AE0D30501D5088006E01306CC
:1007C00003D5C217C1E9000200E0086001207047AC
:1007D00001694A1C02610878704700B58FB0CDE905
:1007E00001310021059105497944CDE903101146F5
:1007F000684600F031F90FB000BD0000E5FFFFFFD3
:100800000A6802F8010B0A607047D1E900239A4296
:1008100002D2531C0B601070704700002DE9FF5F7F
:1008200015468A460446DFF8AC80F8440027D8E92C
:1008300000103E46CDE9001010E03AF816106A4666
:1008400002A800F0ADFE411C07D02178890603D52F
:10085000E269391891420DD80744761C2078800649
:1008600002D5E069B84205DDAE42E6DB3AF8160093
:100870000028E2D1A069C01BA0612046FFF7F6FE68
:10088000D8E90010CDE90010002017E03AF8181060
:100890006A4602A800F084FEB0F1FF3F81460BD00B
:1008A00000250DF1080B05E0D4E901211BF8050036
:1008B00090476D1C4D45F7D308F10100B0428046CA
:1008C000E4DB206A384420622046FFF7E5FEBDE8FD
:1008D000FF9F00000EC100002DE9F0418046D21DAF
:1008E00022F007020025D2E90002F52915A614D04E
:1008F000011E72F1000106DA0023D0EB030063EB66
:10090000020211A608E0D8F800108B0701D50FA647
:1009100002E0490701D50EA601251146002408F181
:10092000240704E000F0E6F930323A55641C50EA3E
:100930000102F7D12B46324621464046BDE8F04140
:1009400000F01DBA000000002D0000002B00000088
:100950002000000030B4002100F1240408E002F07F
:100960000705D208303542EA4372DB086554491C5A
:1009700052EA0305F3D10468002310A2250708D525
:1009800004F020040C4304D0C46901230CA2641EAB
:10099000C46130BC00F0F3B910B5044621461068BC
:1009A000FFF794FE02462046BDE810400023D1E741
:1009B000D21D22F00701D1E90023CBE7000000009F
:1009C00030000000F0B40D460188090502D5214C25
:1009D0007C4402E01F4C7C440E34002100F12406CC
:1009E00008E002F00F071209E75D42EA03721B09F3
:1009F0007754491C52EA0307F3D102780023120707
:100A000004D5702D06D009B1022311342246F0BC62
:100A100000F0B5B901231034F8E770B504460D466F
:100A200021461068FFF752FE024629462046BDE8DF
:100A300070400023C6E7D21D22F00703D3E900234C
:100A4000C0E70368126843F0200303600823C36112
:100A50000023B7E770BF00002DE9F05F8946044628
:100A60004FF0000ADFF874B1FB44C0F820A0204624
:100A7000E1688847002874D0252806D0D4E90121F0
:100A80009047206A401C2062F1E700265F4620461E
:100A9000E16888472028054607DB312D05D2781903
:100AA00010F8200C08B10643F1E7B00701D526F095
:100AB0000406C4F81CA00027C4F818A02A2D09D0E9
:100AC00028460BF0B1FD38B304EB8708303DC8F879
:100AD000185019E059F8041B204604EB8702916175
:100AE000E1688847012F054618D1E069002820DA1F
:100AF00026F020061DE0D8F8180000EB800005EB7A
:100B000040003038C8F818002046E168884705469C
:100B10000BF08AFD0028EED1012F0AD02E2D08D12E
:100B20002046E16888477F1C0546022F46F02006D4
:100B3000C4DBA069002803DA404246F00106A06148
:100B4000F00701D026F010066C2D0BD0682D09D0CF
:100B50004C2D39D06A2D35D0742D35D07A2D33D027
:100B600016E038E0E1682F4620468847B84205463F
:100B700009D16C2F26D04FF48060E16806432046EF
:100B80008847054604E06C2F1AD04FF48070064366
:100B90000DB3A5F14100192802D8203546F40066AE
:100BA0004A462946204626604E46FFF739FB80B16B
:100BB00001280BD0F61D26F0070000F1080956E7C2
:100BC0004020E4E78020D8E70020D6E706F10409BA
:100BD0004DE7284652E7206ABDE8F09F00BF0000BD
:100BE00010B5203AC0F00B80B1E81850A0E81850BA
:100BF000B1E81850A0E81850203ABFF4F5AF5FEA0A
:100C0000027C24BFB1E81850A0E8185044BF18C9AE
:100C100018C0BDE810405FEA827C24BF51F8043B55
:100C200040F8043B08BF7047D20728BF31F8023BA9
:100C300048BF11F8012B28BF20F8023B48BF00F83D
:100C4000012B704701491820ABBEFEE726000200C9
:100C50000048704718000020704770477047704781
:100C600038B504460A4600206946AFF300800028E4
:100C700008BF38BD02460099204600F0EBFC012079
:100C800038BD012000F0C0BDF8B5AFF300800546C7
:100C900000200C46102000BF0646A819A0420DD91E
:100CA000324669460020AFF30080070008BF00F01D
:100CB000ABFD0098A04218BF0546C419FFF7C8FF56
:100CC00005600746F01D20F007004619284600F091
:100CD0000AF8B44208BFF8BDA21B31463868BDE827
:100CE000F84000F0B7BC00210160C0E90110704776
:100CF0001020704730B5B0F10A0271F100034FEADD
:100D0000900E4EEA817EB0EB0E0061EB91014FEA4E
:100D1000101E4EEA017E10EB0E0041EB11114FEA5E
:100D2000102E4EEA016E10EB0E0041EB11214FEA3E
:100D3000104E4EEA014E10EB0E0041EB11414018EF
:100D400041F100014FEAD00040EA41704FEAD10181
:100D50004FEA810444EA907410EB800544EB0104EF
:100D60006D1944EB0404521BA3414FF0000348BF2C
:100D70000A3200D530BD401C41F1000130BD2DE9E3
:100D8000F0470D4699469246044600F12408016852
:100D9000880604D5E06921F01001216000E00120FF
:100DA000A84201DD471B00E00027A1697A1902EB88
:100DB0000900081AA0612078C00602D42046FFF777
:100DC00055FC002608E0D4E901211AF806009047F6
:100DD000206A401C761C20624E45F4DB2078C00659
:100DE0000AD52046FFF742FC06E0D4E90121302075
:100DF0009047206A401C2062381EA7F10107F4DCEE
:100E000007E0D4E9012118F805009047206A401C4A
:100E10002062281EA5F10105F3DC2046FFF73CFC0B
:100E20002078000602D50220BDE8F0870120FBE70C
:100E30002DE9FF4F0C461E464FF0FF378BB0D2E92D
:100E40000001DDF860800A908A46C1F30A5505B9B1
:100E50003D46002108464FF00000BAF1000F00F4B3
:100E6000400005DA00EB80004FF4400101EA500039
:100E70004FEA9059B9F1010F00DDB9460A9850EADE
:100E80004A000ED044F61050A5F2FF3545432F140A
:100E9000B8F1000F1ED07542291E1EDDC9F10002F7
:100EA0001CE0B8F1010F4FF0000001D0302103E049
:100EB000F24305E02154401CB042FBDB30460022E7
:100EC000002121540B99C1F80880C1E900200FB01E
:100ED000BDE8F08FBD1B6D1CDEE74A4600DA6942B3
:100EE00006A800F011FC06AB93E8070003AB83E80B
:100EF000070050460A990AF0B7FF8DE80700A0F5F1
:100F000000501F3800900398002D0ADD42F21F01A7
:100F10004A460844002303A9039068460BF020FAD0
:100F200009E0A0F500504A461F38002303A90390AA
:100F300068460BF02AFA8DE807000004000C03D085
:100F40004FF0FF30410800E01046B8F1000F03D029
:100F50000022009215461EE0751E05D4FFF7CAFE5A
:100F6000303262556D1EF9D5B3460122084302D0D6
:100F700000227F1C04E02078302801D100227F1E4F
:100F8000002A099784D01DE0112D07DAFFF7B2FE81
:100F9000303262556D1C50EA0102F5D1084302D08F
:100FA0000098C8B10EE00021681E05E0235C625C79
:100FB00063542254401E491C8142F7DBAB46A81BF8
:100FC000401E0990002004F80B000B98099AC0F805
:100FD0000880C0E9002B7AE711264FF0000857E798
:100FE0002DE9F04F88460446D21D22F0070191B04A
:100FF000D1E90001CDE90A010BF0FEFA02460B9897
:10100000C00F01D02D2007E02068810701D52B20DB
:1010100002E0202101EAC000032A099001D0072A3A
:1010200005DB03464146204600F02EFB0BE120780D
:10103000800601D5E06900E00620B8F1650F814621
:1010400006D0B8F1660F18D0B8F1670F70D131E053
:101050000020B9F1110F009001DB112301E009F12B
:1010600001030AAA01A90CA8FFF7E2FEDDE90C7052
:10107000002609F10105834647E001204B46009018
:101080004FF000470AAA01A90CA8FFF7D1FEDDE93D
:101090000DB00C995D46002610B909F101000D183C
:1010A000B9EB050003D4C0F1FF3609F10105A5EB4A
:1010B00009002BE0B9F1010F01DA4FF0010900201E
:1010C000B9F1110F0090484601DD112300E00346FD
:1010D0000AAA01A90CA8FFF7ABFEDDE90C704D468A
:1010E00000268346207800070AD4AB4500DA5D4627
:1010F00001A8012D04DD411911F8011C302907D088
:101100004F4502DA17F1040F04DA012082460FE09E
:101110006D1EEEE7002F02DCED1B3E4403E0781C61
:10112000A84200DD7D1CB81B00F1010A4FF000470A
:101130002078000703D4AA4501DB4FF0FF3A0021D5
:10114000B7F1004F0DF143088DF8431024D0022071
:101150002B23002F01DA7F422D230A21021EA0F14A
:10116000010000DC5FB197FBF1FC97FBF1F201FBA2
:101170001C7C17460CF1300C08F801CDEEE7A8F105
:10118000010003702188090501D5452100E0652192
:10119000A0F1010800F8011C09980FA9A1EB0807AC
:1011A000FF1D00B10120411901EBEA70A16938442B
:1011B000081A401EA0612078C00602D42046FFF71E
:1011C00055FA099828B1D4E901219047206A401CBA
:1011D00020622078C00622D52046FFF747FA1EE09D
:1011E000002E04DBB34502DD01A8805D00E0302065
:1011F000D4E901219047206A401C2062761CAAF1A4
:1012000001005FEA000A0AD100F020FAC068016814
:10121000405CD4E901219047206A401C2062281ECE
:10122000A5F10105DCDC07E0D4E9012118F8010B88
:101230009047206A401C2062381EA7F10107F3DCAA
:101240002046FFF729FA032011B041E62DE9F04FBF
:1012500004460D46D21D22F0070089B0D0E9009760
:10126000484639460BF0C8F90246F80F01D02D2345
:1012700007E02068810701D52B2302E0202101EA45
:10128000C0038DF820300BB1012000E00020032ABC
:10129000824601D0072A04DB2946204600F0F4F9F3
:1012A0003FE12078800601D40D2500E0E569C7F311
:1012B0000A560D2D49DA00214FEA175B08464FF018
:1012C0000000002F00F4400007DA00EB80004FF42C
:1012D000400100EBD07001EA60008115012901DDB9
:1012E0004FF0FF3100224FEA850CBCF1180F06D3F6
:1012F0001346ACF118004FF08052C24003E04FF4A7
:10130000801323FA0CF30CF10C0CBCF1200F04D366
:10131000ACF1200C09FA0CF001E007FA0CF00029FE
:101320004FF0004801DD18B90FE00ED140450CD355
:1013300019EB02095F4121B9404502D19F4329EAD7
:101340000209BBEB175F00D0761C2088000502D590
:101350007B48784402E07A487844193808AA302358
:1013600002F80A30037C0AF10101002E0AF1020A98
:1013700053546A4602DC4FF0300101E04FF0310176
:101380004FF001088DF8001002D0A6F2FF3603E0FE
:1013900059EA470100D06B4E002D02DC2178090785
:1013A00004D54FF002082E218DF80110C44600210B
:1013B0000BE0C7F303433F01C35C491C6D1E02F8F9
:1013C0000830052908F1010801DA002DF1DC0021BF
:1013D0000CE000EB1973491C1B786D1E082902F8FC
:1013E00008304FEA091908F1010801DA002DF0DC94
:1013F00021688B0602D516E0A8F10108E04505DD5D
:1014000002EB080313F8013C302BF5D0B8F1000FC4
:1014100009DD02EB080313F8013C2E2B03D1090769
:1014200001D4A8F10108002D05DD3E2102F80810C5
:101430006D1E08F10108407C002E02F8080008F13A
:10144000010804DA2D20764202F8080002E02B2081
:1014500002F808000A214FF47A70864208F1010868
:101460000BDB96FBF0F3303302F8083096FBF0F319
:1014700008F1010800FB136601E0642E0CDB642018
:1014800096FBF0F3303302F8083096FBF0F308F1E6
:10149000010800FB136601E00A2E06DB96FBF1F063
:1014A000303002F8080008F1010896FBF1F001FB6A
:1014B0001060303002F80800A16908F1010808EB5B
:1014C000050202EB0A00081AA0612078C00602D4C7
:1014D0002046FFF7CBF8216A08AE01EB0A00206234
:1014E00004E0D4E9012116F8010B9047BAF1010A92
:1014F000F7D22078C00602D52046FFF7B7F86E462F
:1015000009E016F8010B3E280FD0D4E901219047DD
:10151000206A401C2062B8F10108F2D22046FFF791
:10152000BBF809B00320BDE8F08F206A2844206290
:1015300003E0D4E90121302090476D1EEBD3F8E79A
:101540003AB6000002FCFFFF10B5436913B1AFF3D8
:10155000008001E0FFF7C3F8012010BD127800F110
:1015600024010A7000224A700122EDE711684FF051
:10157000FF32E9E710B5436913B1AFF3008001E032
:10158000FFF74CF9012010BD128800F1240182847C
:101590000022C2840122EDE711684FF0FF32E9E733
:1015A0002DE9F04116460C46054600F047F8036861
:1015B00093F80101012807D0FF2C12D8185D80B1E3
:1015C00001202C70BDE8F081D3F807013246214696
:1015D00003F20713C7182846BC46BDE8F0410023B4
:1015E00060474FF0FF30EDE70048704710000020E3
:1015F00070477546FFF7F8FFAE460500694653464B
:1016000020F00700854618B020B5FEF789FEBDE83A
:1016100020404FF000064FF000074FF000084FF059
:10162000000BAC46ACE8C009ACE8C009ACE8C009A6
:10163000ACE8C00921F007018D46704710B500F0F5
:1016400005F8001D10BD00BF1DB000000048704728
:1016500030000020034640688C46002818BF8842AE
:101660003CBF03464068F8D318681844884207D046
:101670000CF1030020F00700001D411A521A014628
:10168000081D0A60FEF7CBBF2DE9F0411F46044656
:1016900003260168072A01F4006004DB08B116A5DF
:1016A00005E016A503E008B115A500E015A521F099
:1016B00010002060A069C01EA0610FB1401EA06193
:1016C0002046FEF7D3FF4FB1D4E9012138469047B9
:1016D000206A401C2062C01C206206E0206AFAE7F3
:1016E000D4E9012115F8010B9047761EF8D2204667
:1016F000FEF7D2FFBDE8F0814E414E006E616E00F4
:10170000494E4600696E66002DE9F047814616464F
:101710008AB0354878440DC88DE80D0032487844C9
:10172000801C03AC0DC884E80D0041F69B300844D2
:10173000372190FBF1F290FBF1F5A5F1800501FB5B
:1017400012041B3C02D56442012000E00020DFF8B7
:1017500098A080460027FA44AAF1BE0A0EE0E007EE
:101760000AD03246684607EB470101230AEB8101A4
:101770000AF00BFE8DE8070064107F1C002CEED1F0
:10178000194F7F44AE3F19E0E80715D007EB04106E
:101790000DF1180A90E80E008AE80E00C068F042C9
:1017A00001D1981908903246012306A903A80AF02E
:1017B000ECFD03AB83E807006D10641C002DE3D142
:1017C0004FF0010332466946B8F1000F03A802D07A
:1017D0000AF0C6FD01E00AF0D8FDC9E90001C9F828
:1017E00008200AB0BDE8F08708B3000010B5044631
:1017F000AFF300802046BDE81040FEF77CBD002816
:1018000001D0FFF71FBA704710B500F01DF8BDE812
:101810001040FFF7F4BF70B505460C460A2000E003
:101820006D1C00F077F835B128780028F8D102E077
:10183000641C00F06FF814B120780028F8D1BDE8DE
:1018400070400A2000F066B810B5012805D00021CC
:1018500003A0FFF7E0FF012010BD09A1F8E7000099
:1018600053494752544D454D3A204F7574206F6689
:101870002068656170206D656D6F727900000000F1
:101880003A2048656170206D656D6F727920636FD5
:10189000727275707465640030B44FF0013C50F89A
:1018A000042B51F8043BCCFA52F4D51A20D1FCB9E0
:1018B00050F8042B51F8043BCCFA52F4D51A17D146
:1018C000B4B950F8042B51F8043BCCFA52F4D51AB1
:1018D0000ED16CB950F8042B51F8043BCCFA52F4F9
:1018E000D51A05D1002CDAD030BC4FF0000070477B
:1018F00029BAB1FA81F111F01801D1F12000844028
:10190000F2D1CA40CB4012F0FF0213F0FF0330BC0B
:10191000D01A704708B569468DF800000320ABBEA9
:1019200008BD000080B582B0019040F28400C2F290
:10193000000007F0E5F8FFE7002008F017FE41F689
:101940003821C2F20001086040F28400C2F20000B7
:10195000012106F001FAEFE780B582B0019040F274
:10196000C810C2F2000007F0CBF8FFE7002008F033
:10197000FDFD41F63821C2F20001886040F2C81036
:10198000C2F20000022106F0E7F9EFE780B582B06D
:10199000019040F20C30C2F2000007F0B1F8FFE70E
:1019A000002008F0E3FD41F63821C2F20001086191
:1019B00040F20C30C2F20000032106F0CDF9EFE74F
:1019C00080B582B0019040F25040C2F2000007F0B2
:1019D00097F8FFE7002008F0C9FD41F63821C2F270
:1019E0000001886140F25040C2F20000042106F07C
:1019F000B3F9EFE780B582B0019040F29450C2F2A3
:101A0000000007F07DF8FFE7002008F0AFFD41F689
:101A10003821C2F20001086240F29450C2F2000084
:101A2000052106F099F9EFE7FFE7FEE780B540F6FC
:101A3000BC50C2F2000000F063FB80BD80B540F6F0
:101A4000BC50C2F2000000F05BFB80BD80B58CB0E2
:101A500002A800902821FEF776FD00990020029050
:101A6000039004900590069007900890012009903B
:101A70000A9040F6BC50C2F20000019000F072F9EA
:101A80000198022100F044F90CB080BD80B582B00D
:101A90000190FFF7DBFFFFE74FF47A7007F07AFB66
:101AA000FAE7000080B540F6CC70C2F2000000F00A
:101AB0009FFF80BD80B541F2AC10C2F2000000F083
:101AC00097FF80BD80B540F66C70C2F2000000F058
:101AD0008FFF80BD80B541F22C00C2F2000000F003
:101AE00087FF80BD80B541F20C20C2F2000000F0FB
:101AF0007FFF80BD80B540F6AC60C2F2000000F010
:101B000077FF80BD80B540F60C70C2F2000000F097
:101B10006FFF80BD80B540F6EC50C2F2000000F0CF
:101B200067FF80BD80B541F28C00C2F2000000F07A
:101B30005FFF80BD80B541F2EC00C2F2000000F012
:101B400057FF80BD80B540F64C60C2F2000000F047
:101B50004FFF80BD80B541F24C10C2F2000000F092
:101B600047FF80BD82B001900198007810384AF696
:101B7000AB21CAF6AA21A0FB011000090090009930
:101B80004CF62830C0F60000405C0199C86500980A
:101B9000042807D3FFE701990868042262F30900CB
:101BA000886506E00199086840F2FF329043886535
:101BB000FFE70198806D02B07047000086B0059085
:101BC00000208DF813000598806A039005988069BD
:101BD00010BBFFE70398029003281BD80299DFE8A7
:101BE00001F0020D0218059890F82F00C00720B1EF
:101BF000FFE701208DF81300FFE70CE00598C06AAD
:101C0000B0F1C07F04D1FFE701208DF81300FFE79A
:101C100001E000E0FFE745E005988069B0F5005F6E
:101C200025D1FFE70398019003281ED80199DFE82A
:101C300001F00206021101208DF8130016E005984C
:101C400090F82F00C00720B1FFE701208DF81300A6
:101C5000FFE70BE00598C06AB0F1C07F04D1FFE751
:101C600001208DF81300FFE700E0FFE719E003987B
:101C70000090032804D3FFE70098032804D00EE067
:101C800001208DF813000BE0059890F82F00C00795
:101C900020B1FFE701208DF81300FFE700E0FFE728
:101CA000FFE7FFE79DF8130006B0704784B003908C
:101CB00002910192009303980168086820F4802043
:101CC0000860009803990968486003988068402874
:101CD00009D1FFE701980399096888600298039980
:101CE0000968C86008E0029803990968886001984B
:101CF00003990968C860FFE704B0704770470000A7
:101D000081B0EFF3108072B60090FFE7FEE70000AD
:101D100084B002900191029890F820008DF80300A1
:101D20009DF80300012805D0FFE79DF80300022875
:101D30000AD1FFE7019A0298016848691043486197
:101D400000208DF80F0008E00299486A40F48020D6
:101D5000486201208DF80F00FFE79DF80F0004B0E6
:101D60007047000086B004900391049800680190C9
:101D7000049890F820008DF803009DF803000128D6
:101D800006D0FFE79DF80300022840F0B080FFE78F
:101D900046F20040C4F2000001900199D1F800021F
:101DA00040F00100C1F800020199D1F8000220F4CE
:101DB0007C50C1F800020398426A0199D1F80002F0
:101DC00040EA0220C1F800020398406900F01F01B8
:101DD000012088400290029A0199D1F81C02904398
:101DE000C1F81C020398C069F0B9FFE7029A019993
:101DF000D1F80C029043C1F80C02039A9088D16884
:101E0000526940EA0140019901EBC201C1F8400268
:101E1000039A10889168526940EA0140019901EBE8
:101E2000C201C1F84402FFE70398C06901281ED12E
:101E3000FFE7029A0199D1F80C021043C1F80C0295
:101E4000039A90881168526940EA0140019901EBB8
:101E5000C201C1F84002039A90899168526940EA30
:101E60000140019901EBC201C1F84402FFE7039868
:101E7000806940B9FFE7029A0199D1F804029043C2
:101E8000C1F8040207E0029A0199D1F80402104354
:101E9000C1F80402FFE70398006940B9FFE7029A1E
:101EA0000199D1F814029043C1F8140207E0029A94
:101EB0000199D1F814021043C1F81402FFE7039806
:101EC000006A012808D1FFE7029A0199D1F81C02A3
:101ED0001043C1F81C02FFE70199D1F8000220F07D
:101EE0000100C1F8000200208DF8170008E00499F5
:101EF000486A40F48020486201208DF81700FFE70F
:101F00009DF8170006B0704781B0009001B070478F
:101F100086B00490039102920193049890F82000F7
:101F20008DF803009DF80300012806D0FFE79DF817
:101F30000300022840F0D780FFE7039880B9FFE74D
:101F400004980068C068800748B9FFE70499486AA8
:101F500040F40010486201208DF81700CCE00FE03B
:101F6000049800680069800748B9FFE70499486A47
:101F700040F40010486201208DF81700BCE0FFE734
:101F800004980068039900EB0110D0F8B00100F04C
:101F90000400029988600298806858B9FFE70498A5
:101FA0000068039900EB0110D0F8B001400D0299D0
:101FB00008600AE004980068039900EB0110D0F86B
:101FC000B001C00802994860FFE7049800680399CF
:101FD00000EB0110D0F8B00100F002000299C860D7
:101FE00004980068039900EB0110D0F8B40100F0E8
:101FF0000F000299086104980068039900EB011032
:10200000D0F8B40180B2000A02998861049800688F
:10201000039900EB0110D0F8B401000C029948615B
:1020200004980068039900EB0110D0F8B8010199F9
:10203000087004980068039900EB0110D0F8B8010B
:10204000000A0199487004980068039900EB011098
:10205000D0F8B801000C01998870049800680399C1
:1020600000EB0110D0F8B801000E0199C870049877
:102070000068039900EB0110D0F8BC0101990871C8
:1020800004980068039900EB0110D0F8BC01000A25
:102090000199487104980068039900EB0110D0F889
:1020A000BC01000C0199887104980068039900EB49
:1020B0000110D0F8BC01000E0199C871039838B91D
:1020C000FFE704980168C86840F02000C86006E097
:1020D00004980168086940F020000861FFE70020CB
:1020E0008DF8170008E00499486A40F4802048629F
:1020F00001208DF81700FFE79DF8170006B0704724
:1021000080B58AB00990002008900998006840695D
:1021100007900998006840680690099800688068F0
:10212000059009980068C0680490099800680069E3
:10213000039009980068806902909DF81C00C00710
:10214000002800F09480FFE79DF81400C00758B302
:10215000FFE709980168012088609DF81400800756
:10216000002804D5FFE7099800F0C2FB1BE09DF8AA
:1021700014004007002805D5FFE7089840F40060E8
:1021800008900FE09DF814000007002805D5FFE730
:10219000089840F48050089003E0099800F0A4FBF0
:1021A000FFE7FFE7FFE7FFE79DF81500C00760B313
:1021B000FFE7099801684FF4807088609DF815006A
:1021C0008007002804D5FFE7099800F09FFB1BE07B
:1021D0009DF815004007002805D5FFE7089840F452
:1021E000005008900FE09DF815000007002805D565
:1021F000FFE7089840F48040089003E0099800F059
:1022000081FBFFE7FFE7FFE7FFE79DF81600C00748
:1022100060B3FFE7099801684FF4803088609DF84B
:1022200016008007002804D5FFE7099800F076FB28
:102230001BE09DF816004007002805D5FFE7089829
:1022400040F4004008900FE09DF8160000070028B9
:1022500005D5FFE7089840F48030089003E009981E
:1022600000F058FBFFE7FFE7FFE7FFE7FFE79DF818
:102270001C000007002810D5FFE79DF81000C006DD
:10228000002809D5FFE7089840F4007008900998E5
:1022900001681020C860FFE7FFE79DF81C004007B9
:1022A00000280FD5FFE79DF810000007002808D58B
:1022B000FFE7099801680820C860099800F066FAED
:1022C000FFE7FFE79DF81C00800700280BD5FFE71C
:1022D00009980068C068800720B1FFE7099800F0FE
:1022E00059FAFFE7FFE79DF81C004006002810D5CB
:1022F000FFE79DF80C00C006002809D5FFE7089805
:1023000040F4806008900998016810200861FFE798
:10231000FFE79DF81C00800600280FD5FFE79DF819
:102320000C000007002808D5FFE70998016808207D
:102330000861099800F086FAFFE7FFE79DF81C00A6
:10234000C00600280BD5FFE70998006800698007E0
:1023500020B1FFE7099800F079FAFFE7FFE79DF861
:102360001E00800700280FD5FFE79DF81800C00663
:10237000002808D5FFE709980168102048600998EF
:1023800000F068FAFFE7FFE79DF81E00C00778B18C
:10239000FFE79DF818000007002808D5FFE7099817
:1023A000016808204860099800F0BCFAFFE7FFE7E1
:1023B0009DF81D000006002840F18D80FFE79DF884
:1023C00018004007002840F18180FFE79DF81D00BC
:1023D000C00750B1FFE79DF80800C00728B1FFE72C
:1023E000089840F001000890FFE79DF81D00800765
:1023F00000280BD5FFE79DF808008007002805D5C9
:10240000FFE7089840F002000890FFE79DF81D00E4
:10241000400700280BD5FFE79DF80800400700287B
:1024200005D5FFE7089840F004000890FFE79DF805
:102430001D000007002848D5FFE79DF8080010F0B0
:10244000700F42D0FFE7029800F070000146019142
:10245000102814D0FFE70198202815D0FFE7019835
:10246000302816D0FFE70198402817D0FFE70198E1
:10247000502818D0FFE70198602819D01DE008986F
:1024800040F00800089019E0089840F0100008900B
:1024900014E0089840F0200008900FE0089840F001
:1024A000400008900AE0089840F08000089005E09D
:1024B000089840F48070089000E0FFE709980168F0
:1024C000886920F070008861FFE7FFE709980168DC
:1024D00004204860FFE7089848B1FFE7089A099987
:1024E000486A104348620998FFF70EFDFFE70AB0FB
:1024F00080BD000080B584B00290029820B9FFE74B
:1025000001208DF80F00E0E0029890F8200020B93B
:10251000FFE7029800F0DEF8FFE70298016808681C
:1025200040F00100086000F005FF0190FFE702980D
:1025300000684068C007A8B9FFE700F0FBFE0199FA
:10254000401A0B280DD3FFE70299486A40F4003087
:1025500048620299052081F8200001208DF80F00C3
:10256000B3E0E4E702980168086820F00200086020
:1025700000F0E0FE0190FFE70298006840688007E5
:10258000002815D5FFE700F0D5FE0199401A0B2869
:102590000DD3FFE70299486A40F40030486202997F
:1025A000052081F8200001208DF80F008DE0E3E781
:1025B0000298007E012807D1FFE7029801680868A9
:1025C00040F08000086006E002980168086820F08A
:1025D00080000860FFE70298407E012807D1FFE7EE
:1025E00002980168086840F04000086006E0029820
:1025F0000168086820F040000860FFE70298807ECC
:10260000012807D1FFE702980168086840F0200020
:10261000086006E002980168086820F02000086061
:10262000FFE70298C07E012807D1FFE70298016802
:10263000086820F01000086006E002980168086849
:1026400040F010000860FFE70298007F012807D1E2
:10265000FFE702980168086840F00800086006E09B
:1026600002980168086820F008000860FFE70298F7
:10267000407F012807D1FFE702980168086840F011
:102680000400086006E002980168086820F0040071
:102690000860FFE7029B19685A689868D3F80CC075
:1026A00040EA0C00D3F810C040EA0C005B69184304
:1026B000013A1043C861029900204862029A012140
:1026C00082F820108DF80F00FFE79DF80F0004B08E
:1026D00080BD000080B58CB00B9000200A9009905E
:1026E0000890079006900B98006846F20041C4F2EB
:1026F0000001884247D1FFE7FFE70020059043F63D
:102700004000C4F20200016841F0007101600068FD
:1027100000F0007005900598FFE7FFE700200490A7
:1027200043F63000C4F20200016841F00801016084
:10273000006800F0080004900498FFE7032006906A
:1027400002210791002102910891099009200A9025
:1027500040F60040C4F2020006A900F0F3FB029A22
:10276000132000900521019100F0C2FE009800F0B6
:10277000B5FE0199029A1420039000F0B9FE039867
:1027800000F0ACFEFFE70CB080BD000081B000900F
:1027900001B0704780B58AB009900998002102AA5B
:1027A0006B46FFF7B5FB0498E0B9FFE70598C8B999
:1027B000FFE70698082815D1FFE70298A0F201105C
:1027C00004280DD8FFE7029940F6A650C2F2000097
:1027D00000EB8100A0F20440694605F09DFB00E09B
:1027E000FFE7FFE79DF8070003280ED1FFE70299F6
:1027F00040F6A650C2F2000000EB81014FF6FE3217
:10280000CFF6FF7201208854FFE79DF8000040B921
:10281000FFE740F2F960C2F200000078C00748B953
:10282000FFE70298A0F5807040F2F861C2F2000163
:102830000870FFE740F2E161C2F200010120087078
:102840000AB080BD81B0009001B0704781B00090A7
:1028500001B0704781B0009001B0704780B584B07E
:102860000290029890F8200001282FD1FFE70299EA
:10287000022081F8200002980168086820F0010019
:10288000086000F057FD0190FFE70298006840687B
:10289000C007A8B1FFE700F04DFD0199401A0B28D1
:1028A0000DD3FFE70299486A40F40030486202996C
:1028B000052081F8200001208DF80F000FE0E4E7EB
:1028C0000299002048628DF80F0008E00299486ADA
:1028D00040F40020486201208DF80F00FFE79DF8CA
:1028E0000F0004B080BD000081B0009001B07047BF
:1028F00081B0009040F20401C2F200010120087092
:1029000001B0704781B0009001B0704781B0009075
:1029100001B0704781B0009001B0704781B0009065
:1029200001B0704781B0009001B0704780B582B0AF
:102930000090009820B9FFE701208DF8070011E012
:102940000098407938B9FFE7009900200871009895
:1029500000F00CF8FFE700990120487100208DF885
:102960000700FFE79DF8070002B080BD82B001902C
:102970000198006843F20001C4F20201884212D1BA
:10298000FFE7FFE70020009043F63000C4F20200AA
:10299000016841F480510160006800F480500090AB
:1029A0000098FFE7FFE702B07047000082B0009098
:1029B000009890F83500022807D0FFE700998020A2
:1029C000486501208DF807000EE00099052081F888
:1029D000350000980168086820F001000860FFE7F2
:1029E00000208DF80700FFE79DF8070002B0704750
:1029F00080B586B005900020039040F20000C2F23E
:102A00000000006848F2B511C1F64E31A0FB01107C
:102A1000800A02900598806D0190019800680490EA
:102A200004980599C96DC840000700281AD5FFE72A
:102A30000598006800684007002812D5FFE7059850
:102A40000168086820F0040008600598C16D08203E
:102A50008840019988600599486D40F001004865FB
:102A6000FFE7FFE704980599C96DC840C007A0B10A
:102A7000FFE7059800684069000600280CD5FFE7CD
:102A80000598C16D01208840019988600599486DBD
:102A900040F002004865FFE7FFE704980599C96D1B
:102AA000C8404007002814D5FFE705980068006873
:102AB000800700280CD5FFE70598C16D04208840E9
:102AC000019988600599486D40F004004865FFE76A
:102AD000FFE704980599C96DC840C006002847D58E
:102AE000FFE7059800680068000700283FD5FFE76A
:102AF0000598C16D1020884001998860059800688C
:102B00000068400300281AD5FFE7059800680068B0
:102B10000003002809D4FFE70598006C20B1FFE707
:102B20000598016C8847FFE708E00598806C20B1A4
:102B3000FFE70598816C8847FFE7FFE716E00598F7
:102B400000680068C005002807D4FFE70598016801
:102B5000086820F008000860FFE70598006C20B1C5
:102B6000FFE70598016C8847FFE7FFE7FFE7FFE70E
:102B700004980599C96DC8408006002840F18D80F1
:102B8000FFE7059800680068C006002840F18480CF
:102B9000FFE70598C16D202088400199886005985D
:102BA00090F83500052834D1FFE7059801680868DA
:102BB00020F01600086005980168486920F0800040
:102BC00048610598006C20B9FFE70598806C38B122
:102BD000FFE705980168086820F008000860FFE733
:102BE0000598C16D3F2088400199886005990120B2
:102BF00081F83500FFE70599002081F83400FFE7F0
:102C00000598006D20B1FFE70598016D8847FFE743
:102C10007BE0059800680068400300281AD5FFE7AC
:102C20000598006800680003002809D4FFE70598AC
:102C3000406C20B1FFE70598416C8847FFE708E04A
:102C40000598C06B20B1FFE70598C16B8847FFE787
:102C5000FFE720E0059800680068C005002811D44F
:102C6000FFE705980168086820F0100008600599E2
:102C7000012081F83500FFE70599002081F8340034
:102C8000FFE7FFE70598C06B20B1FFE70598C16B30
:102C90008847FFE7FFE7FFE7FFE70598406DA0B330
:102CA000FFE70598406DC00730B3FFE705990520A1
:102CB00081F8350005980168086820F00100086077
:102CC000FFE70398013003900299884201D9FFE79A
:102CD00007E0FFE7059800680068C0070028F0D10A
:102CE000FFE70599012081F83500FFE705990020ED
:102CF00081F83400FFE7FFE70598C06C20B1FFE7DB
:102D00000598C16C8847FFE7FFE706B080BD00006B
:102D100080B586B004900020039000F00BFB029079
:102D2000049820B9FFE701208DF81700A3E004986C
:102D3000406A08B1FFE7FFE70499022081F83500F7
:102D4000FFE70499002081F83400FFE70498016848
:102D5000086820F001000860FFE704980068006838
:102D6000C00790B1FFE700F0E5FA0299401A062883
:102D70000AD3FFE70499202048650499032081F8CD
:102D800035008DF8170076E0E7E7049800680068E2
:102D90000390039848F23F01CFF2100108400390DE
:102DA000049900914868D1F808C0CB680A6940EAE4
:102DB0000C00184310434A6910438A691043CA69DA
:102DC0001043096A01430398084303900498406A3A
:102DD000042808D1FFE70499C86A096B01430398E6
:102DE00008430390FFE70398049909680860049872
:102DF000006840690390039820F00700039004984E
:102E0000416A0398084303900498406A04281AD141
:102E1000FFE70498816A0398084303900498C06A06
:102E200080B1FFE70498FEF7C9FE50B1FFE70499AF
:102E3000402048650499012081F835008DF817007D
:102E400019E0FFE7FFE703980499096848610498CF
:102E5000FEF788FE01900498C16D3F2088400199DB
:102E60008860049900204865049A012182F8351091
:102E70008DF81700FFE79DF8170006B080BD000031
:102E800080B588B0069005910492039300208DF8D8
:102E90000B000698806D0190FFE7069890F83400CB
:102EA000012804D1FFE702208DF81F0045E00699B4
:102EB000012081F83400FFE7FFE7069890F835001D
:102EC00001282BD1FFE70699022081F835000699E9
:102ED0000020486506980599049A039BFEF7E6FED4
:102EE0000698C16D3F208840019988600698016866
:102EF000086840F0160008600698006C38B1FFE7DB
:102F000006980168086840F008000860FFE7069826
:102F10000168086840F00100086009E0FFE70699D1
:102F2000002081F83400FFE702208DF80B00FFE756
:102F30009DF80B008DF81F00FFE79DF81F0008B0FB
:102F400080BD000090B00F900E9100200C900B906F
:102F50000A900D90FFE70D980F2800F2E881FFE737
:102F60000D99012088400C900E9800680C9908403B
:102F70000B900B980C99884240F0D481FFE70E9893
:102F8000406800F00300012807D0FFE70E98406872
:102F900000F0030002282FD1FFE70F9880680A9005
:102FA0000D984100032000FA01F10A9888430A9025
:102FB0000E98C0680D99490000FA01F10A9808437B
:102FC0000A900A980F9988600F9840680A900D99A6
:102FD000012000FA01F10A9888430A900E9840688F
:102FE000C0F300100D9900FA01F10A9808430A9005
:102FF0000A980F994860FFE70E98406800F00300B8
:10300000032818D0FFE70F98C0680A900D98410078
:10301000032000FA01F10A9888430A900E9880680C
:103020000D99490000FA01F10A9808430A900A989C
:103030000F99C860FFE70E98406800F0030002286F
:1030400026D1FFE70F980D996FF0030202EA5101B4
:103050000844006A0A900D9800F0070081000F20D4
:1030600000FA01F10A9888430A900E9800690D99B8
:1030700001F00701890000FA01F10A9808430A905B
:103080000A980F990D9B02EA530211440862FFE768
:103090000F9800680A900D984100032000FA01F192
:1030A0000A9888430A900E98406800F003000D9932
:1030B000490000FA01F10A9808430A900A980F990A
:1030C00008600E9880798007002800F02A81FFE7C9
:1030D000FFE70020099043F64400C4F202000168B3
:1030E00041F480410160006800F480400990099833
:1030F000FFE70D9820F0030043F60801C4F2010138
:1031000040580A900D9800F0030081000F2000FA4B
:1031100001F10A9888430A900F980021C4F2020135
:10312000884203D1FFE7002008907AE00F9840F230
:103130000041C4F20201884203D1FFE70120079059
:103140006CE00F9840F60001C4F20201884203D1FE
:10315000FFE7022006905EE00F9840F60041C4F2BF
:103160000201884203D1FFE70320059050E00F9849
:1031700041F20001C4F20201884203D1FFE70420BA
:10318000049042E00F9841F20041C4F202018842EB
:1031900003D1FFE70520039034E00F9841F60001CA
:1031A000C4F20201884203D1FFE70620029026E024
:1031B0000F9841F60041C4F20201884203D1FFE7B3
:1031C0000720019018E00F9842F20001C4F20201BA
:1031D000884203D1FFE7082000900AE00F9942F2ED
:1031E0000042C4F202020A20914208BF0920009066
:1031F000FFE700980190FFE701980290FFE702982F
:103200000390FFE703980490FFE704980590FFE719
:1032100005980690FFE706980790FFE70798089043
:10322000FFE70898C0B20D9901F00301890000FA88
:1032300001F10A9808430A900A980D9921F00301B8
:1032400043F60802C4F20102885043F60840C4F273
:10325000010000680A900B990A9888430A900E981A
:103260008079C006002805D5FFE70B990A98084326
:103270000A90FFE70A9843F60841C4F2010108608A
:1032800043F60C40C4F2010000680A900B990A98BA
:1032900088430A900E9880798006002805D5FFE7BC
:1032A0000B990A9808430A90FFE70A9843F60C41E5
:1032B000C4F20101086043F60440C4F20100006852
:1032C0000A900B990A9888430A900E988079800793
:1032D000002805D5FFE70B990A9808430A90FFE7F5
:1032E0000A9843F60441C4F20101086043F6004025
:1032F000C4F2010000680A900B990A9888430A906A
:103300000E988079C00728B1FFE70B990A98084307
:103310000A90FFE70A9843F60041C4F201010860F1
:10332000FFE7FFE7FFE70D9801300D9013E610B0BF
:103330007047000045F26860C2F200000068704704
:1033400040F20500C2F20000027845F26861C2F264
:1033500000010868104408607047000080B543F61B
:103360000041C4F20201086840F400700860086877
:1033700040F480600860086840F4807008600320B2
:1033800000F0D0F8052000F005F800F07BF80020F0
:1033900080BD000080B58CB00B900020049003909D
:1033A000FFE70020009043F64000C4F202000168ED
:1033B00041F480710160006800F480700090009812
:1033C000FFE706A802A900F047FA099804900498BC
:1033D00020B9FFE700F070FA059004E000F06CFA05
:1033E00040000590FFE705984DF68361C4F21B315C
:1033F000A0FB01014FF0FF3000EB9140039041F240
:10340000C420C2F2000042F20001C4F200010160D7
:1034100040F2E731C16003994160002101618160A0
:10342000816100F081FF8DF807009DF8070028BB3F
:10343000FFE741F2C420C2F2000001F0CDFA8DF89E
:1034400007009DF80700C0B9FFE72D2000F046F8FF
:103450000B980F280CD8FFE70B992D20002200F0C5
:1034600047F80B9840F20801C2F20001086003E03F
:1034700001208DF80700FFE7FFE7FFE79DF8070051
:103480000CB080BD80B582B0FFE70020019043F60C
:103490004400C4F20200016841F480410160006808
:1034A00000F4804001900198FFE7FFE700200090C2
:1034B00043F64000C4F20200016841F0805101600F
:1034C000006800F0805000900098FFE76FF0010066
:1034D0000F21002200F00CF802B080BD80B582B050
:1034E0008DF807009DF9070005F0AEFC02B080BD25
:1034F00080B586B08DF817000491039200200290E9
:1035000005F0BAFC02909DF9170001900298049909
:10351000039A03F0A1FC0146019805F0B5FC06B042
:1035200080BD000080B582B00190019805F0F0FCEC
:1035300002B080BD80B584B000200290FFE700207B
:10354000019043F64000C4F20200016841F080514E
:103550000160006800F0805001900198FFE7402171
:10356000C4F20E2101200860FFF7E4FE0290FFE79D
:1035700047F20400C4F20000006800F48030B0F5A7
:10358000803F0DD0FFE7FFF7D5FE0299401AB0F556
:103590007A7F04D9FFE703208DF80F0025E0E7E7E5
:1035A0004421C4F20E2101200860FFF7C3FE0290FF
:1035B000FFE747F20400C4F20000006800F40030A6
:1035C000B0F5003F0DD0FFE7FFF7B4FE0299401AB7
:1035D000B0F57A7F04D9FFE703208DF80F0004E0EF
:1035E000E7E700208DF80F00FFE79DF80F0004B01B
:1035F00080BD000080B584B002900191029820B98E
:10360000FFE701208DF80F0021E1019843F600410A
:10361000C4F20201096801F00F01884212D9FFE7E4
:10362000019943F60040C4F202000170006800F006
:103630000F000199884204D0FFE701208DF80F00A8
:1036400005E1FFE702980078800700282AD5FFE708
:10365000029800784007002809D5FFE743F60801E3
:10366000C4F20201086840F4E0500860FFE70298E5
:1036700000780007002809D5FFE743F60801C4F2E7
:103680000201086840F460400860FFE743F6080163
:10369000C4F20201086820F0F000029A9268104318
:1036A0000860FFE702980078C00700286ED0FFE7A7
:1036B00002984068012811D1FFE743F60000C4F2E8
:1036C0000200006800F400310020B0EB514F04D13B
:1036D000FFE701208DF80F00B9E02CE00298406868
:1036E000022805D0FFE702984068032811D1FFE7C0
:1036F00043F60000C4F20200006800F000710020F0
:10370000B0EB516F04D1FFE701208DF80F009EE070
:1037100010E043F60000C4F20200006800F002016D
:103720000020B0EB510F04D1FFE701208DF80F000E
:103730008DE0FFE7FFE743F60801C4F202010868E5
:1037400020F00300029A526810430860FFF7F2FD70
:103750000090FFE743F60800C4F20200006800F0A2
:103760000C0002994968B0EB810F0ED0FFE7FFF71C
:10377000E1FD0099401A41F28931884204D3FFE704
:1037800003208DF80F0062E0E4E7FFE7019843F6BD
:103790000041C4F20201096801F00F01884212D20F
:1037A000FFE7019943F60040C4F20200017000688F
:1037B00000F00F000199884204D0FFE701208DF846
:1037C0000F0044E0FFE702980078400700280CD57E
:1037D000FFE743F60801C4F20201086820F4E05054
:1037E000029AD26810430860FFE702980078000749
:1037F00000280DD5FFE743F60801C4F2020108686E
:1038000020F46040029A126940EAC2000860FFE7B3
:1038100000F076F843F60801C4F202010968C9B263
:103820000A094CF63821C0F60001895CC84040F214
:103830000001C2F20001086040F20800C2F200007C
:103840000068FFF7A7FD00208DF80F00FFE79DF847
:103850000F0004B080BD000082B00190009101997A
:103860000F20086043F60800C4F20200016801F06E
:103870000301019A5160016801F0F001019A916021
:10388000016801F4E051019AD160006800F46040E1
:10389000C0080199086143F60040C4F202000068C4
:1038A00000F00F000099086002B0704740F200007D
:1038B000C2F200000068704780B5FFF7F7FF43F6DB
:1038C0000801C4F202010968C1F382224CF64821C2
:1038D000C0F60001895CC84080BD000080B5FFF7DC
:1038E000E5FF43F60801C4F20201096889B24A0BF8
:1038F0004CF64821C0F60001895CC84080BD00003C
:1039000080B586B00020059004900390029043F6A5
:103910000800C4F20200006800F00C0001460191AA
:1039200040B1FFE7019804280AD0FFE70198082872
:103930000CD04FE042F20040C0F2F40002904FE0A1
:1039400041F60030C0F2B700029049E043F60400AF
:10395000C4F20200016801F03F01059100684002D5
:10396000002813D5FFE743F60400C4F20200006804
:10397000C0F3881041F60031C0F2B701A0FB01018D
:10398000059A0023FCF7DEFC049012E043F60400E5
:10399000C4F202000068C0F3881042F20041C0F295
:1039A000F401A0FB0101059A0023FCF7CBFC049075
:1039B000FFE743F60400C4F20200006800F440315F
:1039C000022000EBD130039004980399B0FBF1F092
:1039D000029005E042F20040C0F2F4000290FFE7DE
:1039E000029806B080BD000080B586B004900498AF
:1039F00020B9FFE701208DF8170050E30498007804
:103A0000C007002800F0A580FFE743F60800C4F2D5
:103A10000200006800F00C00042813D0FFE743F612
:103A20000800C4F20200006800F00C0008281ED153
:103A3000FFE743F60400C4F20200006840020028D9
:103A400015D5FFE743F60000C4F20200006800F459
:103A500000310020B0EB514F08D0FFE704984068D8
:103A600020B9FFE701208DF8170018E370E0FFE7A9
:103A700004984068B0F5803F09D1FFE743F60001A4
:103A8000C4F20201086840F48030086020E0049825
:103A90004068B0F5A02F0DD1FFE743F60001C4F256
:103AA0000201086840F480200860086840F4803013
:103AB00008600CE043F60001C4F20201086820F43B
:103AC00080300860086820F480200860FFE7FFE786
:103AD000FFE704984068E8B1FFE7FFF72BFC03908D
:103AE000FFE743F60000C4F20200006800F4003172
:103AF0000020B0EB514F0CD1FFE7FFF71BFC0399FF
:103B0000401A652804D3FFE703208DF81700C6E2AA
:103B1000E7E71CE0FFF70EFC0390FFE743F6000029
:103B2000C4F20200006800F400310020B0EB514FF5
:103B30000CD0FFE7FFF7FEFB0399401A652804D37A
:103B4000FFE703208DF81700A9E2E7E7FFE7FFE7AB
:103B5000FFE7049800788007002840F19680FFE78F
:103B600043F60800C4F20200006810F00C0F13D0F6
:103B7000FFE743F60800C4F20200006800F00C0002
:103B800008282CD1FFE743F60400C4F202000068C5
:103B90004002002823D4FFE743F60000C4F20200ED
:103BA000006800F002010020B0EB510F09D0FFE7E0
:103BB0000498C068012804D0FFE701208DF81700A1
:103BC0006DE243F60001C4F20201086820F0F8003B
:103BD000049A126940EAC2000860FFE754E00498C2
:103BE000C06870B3FFE70021C4F2472101200860DC
:103BF000FFF7A0FB0390FFE743F60000C4F20200CA
:103C0000006800F002010020B0EB510F0CD1FFE77B
:103C1000FFF790FB0399401A032804D3FFE7032022
:103C20008DF817003BE2E7E743F60001C4F202011A
:103C3000086820F0F800049A126940EAC20008609F
:103C400021E00021C4F2472100200860FFF772FB49
:103C50000390FFE743F60000C4F20200006800F0A2
:103C600002010020B0EB510F0CD0FFE7FFF762FB21
:103C70000399401A032804D3FFE703208DF81700A7
:103C80000DE2E7E7FFE7FFE7FFE7049800780007AA
:103C900000284BD5FFE70498406918B3FFE740F6CA
:103CA0008061C4F2472101200860FFF743FB0390C5
:103CB000FFE743F67400C4F20200006800F002015E
:103CC0000020B0EB510F0CD1FFE7FFF733FB039956
:103CD000401A032804D3FFE703208DF81700DEE124
:103CE000E7E722E040F68061C4F247210020086047
:103CF000FFF720FB0390FFE743F67400C4F20200D5
:103D0000006800F002010020B0EB510F0CD0FFE77B
:103D1000FFF710FB0399401A032804D3FFE70320A1
:103D20008DF81700BBE1E7E7FFE7FFE704980078AD
:103D30004007002840F1CE80FFE700208DF8070003
:103D400043F64000C4F202000068C000002815D409
:103D5000FFE7FFE70020009043F64000C4F20200B6
:103D6000016841F080510160006800F080500090CF
:103D70000098FFE701208DF80700FFE747F20000F9
:103D8000C4F200000068C005002822D4FFE747F213
:103D90000001C4F20001086840F480700860FFF779
:103DA000C9FA0390FFE747F20000C4F20000006880
:103DB000C00500280CD4FFE7FFF7BCFA0399401AAE
:103DC000032804D3FFE703208DF8170067E1EAE733
:103DD000FFE7FFE704988068012809D1FFE743F671
:103DE0007001C4F20201086840F0010008601FE0A1
:103DF0000498806805280DD1FFE743F67001C4F2EE
:103E00000201086840F004000860086840F0010002
:103E100008600CE043F67001C4F20201086820F06B
:103E200001000860086820F004000860FFE7FFE771
:103E3000FFE704988068F8B1FFE7FFF77BFA03908B
:103E4000FFE743F67000C4F20200006800F00201D0
:103E50000020B0EB510F0ED1FFE7FFF76BFA03998B
:103E6000401A41F28931884204D3FFE703208DF8DC
:103E7000170014E1E5E71EE0FFF75CFA0390FFE7A7
:103E800043F67000C4F20200006800F00201002056
:103E9000B0EB510F0ED0FFE7FFF74CFA0399401A31
:103EA00041F28931884204D3FFE703208DF81700DF
:103EB000F5E0E5E7FFE79DF80700012809D1FFE7F6
:103EC00043F64001C4F20201086820F08050086007
:103ED000FFE7FFE704988069002800F0DC80FFE737
:103EE00043F60800C4F20200006800F00C00082845
:103EF00000F08580FFE70498806902285CD1FFE725
:103F00006021C4F2472100200860FFF713FA0390F4
:103F1000FFE743F60000C4F20200006800F0007101
:103F20000020B0EB516F0CD0FFE7FFF703FA0399C5
:103F3000401A032804D3FFE703208DF81700AEE0F2
:103F4000E7E70499C869D1F820C04B6A8A6A40EA59
:103F50000C0040EA8310D2034FF6FF739A43A2F598
:103F600080321043C96A40EA016043F60401C4F29A
:103F7000020108606021C4F2472101200860FFF7B8
:103F8000D9F90390FFE743F60000C4F2020000688D
:103F900000F000710020B0EB516F0CD1FFE7FFF78C
:103FA000C9F90399401A032804D3FFE703208DF8C9
:103FB000170074E0E7E721E06021C4F24721002008
:103FC0000860FFF7B7F90390FFE743F60000C4F27B
:103FD0000200006800F000710020B0EB516F0CD0BF
:103FE000FFE7FFF7A7F90399401A032804D3FFE777
:103FF00003208DF8170052E0E7E7FFE74AE0049856
:104000008069012804D1FFE701208DF8170046E000
:1040100043F60400C4F2020000680290049880692C
:10402000012831D0FFE7029800F480000499C969A3
:10403000884229D1FFE7029800F03F000499096AFD
:10404000884221D1FFE7029847F6C07108400499E1
:10405000496AB0EB811F17D1FFE7029800F44030A6
:104060000499896AC9034FF6FF729143A1F5803123
:10407000884209D1FFE7029800F070600499C96A8C
:10408000B0EB016F04D0FFE701208DF8170006E0C8
:10409000FFE7FFE7FFE700208DF81700FFE79DF837
:1040A000170006B080BD000080B582B00090009877
:1040B00020B9FFE701208DF807001CE00098407947
:1040C00038B9FFE7009900200871009800F018F84F
:1040D000FFE700990220487100980168086840F0E5
:1040E0000400086000990120487100990020886050
:1040F0008DF80700FFE79DF8070002B080BD0000C3
:1041000082B001900198006840F60001C5F20601F6
:10411000884212D1FFE7FFE70020009043F6340009
:10412000C4F20200016841F040010160006800F043
:10413000400000900098FFE7FFE702B070470000E2
:1041400081B0009001B0704781B0009001B070471D
:1041500084B00290019100200090FFE7029890F84F
:104160003C00012804D1FFE702208DF80F0044E055
:104170000299012081F83C00FFE7FFE7009820F05A
:10418000FF000199C96808430090009820F440702E
:104190000199896808430090009820F48060019993
:1041A000496808430090009820F40060019909686C
:1041B00008430090009820F4805001990969084351
:1041C0000090009820F4005001994969084300903C
:1041D000009820F480400199C96908430090009834
:1041E000029909684864FFE70299002081F83C00C1
:1041F000FFE700208DF80F00FFE79DF80F0004B0E7
:104200007047000085B003900291FFE7039890F893
:104210003C00012804D1FFE702208DF813007EE066
:104220000399012081F83C00FFE7FFE70399022092
:1042300081F83D0003980068406801900398006889
:1042400080680090019820F0700001900298016849
:104250000198084301900198039909684860039800
:1042600000680021C4F2010188423CD0FFE70398B6
:104270000068B0F1804F36D0FFE70398006840F245
:104280000041C4F2000188422DD0FFE70398006886
:1042900040F60001C4F20001884224D0FFE70398F1
:1042A000006840F60041C4F2000188421BD0FFE7DD
:1042B0000398006840F20041C4F20101884212D024
:1042C000FFE70398006844F20001C4F2010188424C
:1042D00009D0FFE70398006841F60001C4F200012D
:1042E00088420ED1FFE7009820F0800000900298ED
:1042F0004168009808430090009803990968886015
:10430000FFE70399012081F83D00FFE703990020B2
:1043100081F83C00FFE700208DF81300FFE79DF8CF
:10432000130005B07047000080B582B0009000987F
:1043300020B9FFE701208DF807003FE0009890F8D2
:104340003D0040B9FFE70099002081F83C0000984B
:1043500000F038F8FFE70099022081F83D0000994D
:1043600051F8040B02F09CFE0099012081F84600F0
:10437000FFE70099012081F83E00009981F83F0095
:10438000009981F84000009981F84100FFE7FFE7BC
:104390000099012081F84200009981F843000099BA
:1043A00081F84400009981F84500FFE70099012059
:1043B00081F83D0000208DF80700FFE79DF8070019
:1043C00002B080BD80B592B01190119800680021B4
:1043D000C4F20101884276D1FFE7FFE70020109088
:1043E00043F64400C4F20200016841F0010101609B
:1043F000006800F0010010901098FFE740F6EC50C4
:10440000C2F200000B9046F22841C4F202010160A2
:104410004FF040614160402181600021C1604FF454
:10442000806202614FF4006242614FF40052826187
:104430004FF48072C2614FF4003202624162FEF7B3
:1044400067FC18B1FFE7FDF75BFCFFE7FFE711989A
:1044500040F6EC51C2F20001416211988863FFE717
:1044600040F64C60C2F200000A9046F2A041C4F24D
:10447000020101604FF040614160402181600021F4
:10448000C1604FF4806202614FF4006242614FF4F8
:10449000005282614FF48072C2614FF400320262B6
:1044A0004162FEF735FC18B1FFE7FDF729FCFFE795
:1044B000FFE7119840F64C61C2F20001C162119809
:1044C0008863FFE710E211980068B0F1804F4ED189
:1044D000FFE7FFE700200F9043F64000C4F2020020
:1044E000016841F001010160006800F001000F90D7
:1044F0000F98FFE740F6AC60C2F20000099046F268
:10450000A001C4F2020101604FF0C061416040218E
:1045100081600021C1604FF4806202614FF48052DB
:1045200042614FF4804282614FF48072C2614FF465
:10453000003202624162FEF7EBFB18B1FFE7FDF7C4
:10454000DFFBFFE7FFE7119840F6AC61C2F2000124
:10455000816211988863FFE7FFE7119840F6AC612C
:10456000C2F20001016311988863FFE7BBE1119873
:10457000006840F60041C4F20001884240F0BD806E
:10458000FFE7FFE700200E9043F64000C4F2020070
:10459000016841F008010160006800F008000E9019
:1045A0000E98FFE740F6CC70C2F20000089046F289
:1045B0001001C4F2020101604FF0406141604021EE
:1045C00081600021C1604FF4806202614FF480522B
:1045D00042614FF4804282614FF48072C2614FF4B5
:1045E000003202624162FEF793FB18B1FFE7FDF76C
:1045F00087FBFFE7FFE7119840F6CC71C2F200019C
:10460000C16211988863FFE7FFE7119840F6CC710B
:10461000C2F20001016211988863FFE741F22C00A9
:10462000C2F20000079046F25801C4F20201016094
:104630004FF040614160402181600021C1604FF432
:10464000806202614FF4805242614FF48042826185
:104650004FF48072C2614FF4003202624162FEF791
:1046600057FB18B1FFE7FDF74BFBFFE7FFE711989A
:1046700041F22C01C2F20001016311988863FFE747
:10468000FFE7119841F22C01C2F2000181631198F9
:104690008863FFE740F66C70C2F20000069046F2B5
:1046A0004001C4F2020101604FF0406141604021CD
:1046B00081600021C1604FF4806202614FF480523A
:1046C00042614FF4804282614FF48072C2614FF4C4
:1046D000003202624162FEF71BFB18B1FFE7FDF7F3
:1046E0000FFBFFE7FFE7119840F66C71C2F2000183
:1046F000416211988863FFE7F4E01198006841F285
:104700000001C4F2000188421BD1FFE7FFE700204F
:104710000D9043F64000C4F20200016841F0100120
:104720000160006800F010000D900D98FFE7362042
:10473000059005210022FEF7DBFE0598FEF7CEFE70
:10474000CFE01198006840F20041C4F201018842B4
:1047500040F0C680FFE7FFE700200C9043F64400DE
:10476000C4F20200016841F002010160006800F03B
:1047700002000C900C98FFE741F2EC00C2F200003E
:10478000049046F27041C4F2020101604FF0606192
:104790004160402181600021C1604FF4806202616C
:1047A0004FF4006242614FF4005282614FF4807214
:1047B000C2614FF4003202624162FEF7A9FA18B1F9
:1047C000FFE7FDF79DFAFFE7FFE7119841F2EC01E3
:1047D000C2F20001C16211988863FFE741F24C10F8
:1047E000C2F20000039046F2B841C4F20201016037
:1047F0004FF060614160402181600021C1604FF451
:10480000806202614FF4006242614FF400528261A3
:104810004FF48072C2614FF4003202624162FEF7CF
:1048200077FA18B1FFE7FDF76BFAFFE7FFE711989A
:1048300041F24C11C2F20001016311988863FFE755
:10484000FFE7119841F24C11C2F200018163119807
:104850008863FFE7FFE7119841F24C11C2F20001B3
:10486000416311988863FFE741F28C00C2F20000B7
:10487000029046F24041C4F2020101604FF06061D3
:104880004160402181600021C1604FF4806202617B
:104890004FF4006242614FF4005282614FF4807223
:1048A000C2614FF4003202624162FEF731FA18B180
:1048B000FFE7FDF725FAFFE7FFE7119841F28C01CA
:1048C000C2F20001416211988863FFE72D20019038
:1048D00005210022FEF70CFE0198FEF7FFFDFFE721
:1048E000FFE7FFE7FFE7FFE712B080BD83B001906D
:1048F000019890F83D00012804D0FFE701208DF8D1
:104900000B0064E00199022081F83D0001980068E5
:104910000021C4F2010188423CD0FFE70198006801
:10492000B0F1804F36D0FFE70198006840F20041B7
:10493000C4F2000188422DD0FFE70198006840F6DC
:104940000001C4F20001884224D0FFE7019800680A
:1049500040F60041C4F2000188421BD0FFE70198F5
:10496000006840F20041C4F20101884212D0FFE722
:104970000198006844F20001C4F20101884209D0A4
:10498000FFE70198006841F60001C4F20001884287
:1049900012D1FFE701980068806800F007000090DE
:1049A0000098062807D0FFE701980168086840F0E2
:1049B00001000860FFE706E001980168086840F020
:1049C00001000860FFE700208DF80B00FFE79DF86D
:1049D0000B0003B07047000083B00190019890F87D
:1049E0003D00012804D0FFE701208DF80B006AE0AC
:1049F0000199022081F83D0001980168C86840F0E3
:104A00000100C860019800680021C4F201018842D9
:104A10003CD0FFE701980068B0F1804F36D0FFE747
:104A20000198006840F20041C4F2000188422DD094
:104A3000FFE70198006840F60001C4F200018842D7
:104A400024D0FFE70198006840F60041C4F200015D
:104A500088421BD0FFE70198006840F20041C4F291
:104A60000101884212D0FFE70198006844F200017A
:104A7000C4F20101884209D0FFE70198006841F6BD
:104A80000001C4F20001884212D1FFE701980068DA
:104A9000806800F0070000900098062807D0FFE724
:104AA00001980168086840F001000860FFE706E02F
:104AB00001980168086840F001000860FFE70020E5
:104AC0008DF80B00FFE79DF80B0003B07047000066
:104AD00080B586B00490039100208DF80B00FFE7AD
:104AE000049890F83C00012804D1FFE702208DF8DB
:104AF0001700ABE00499012081F83C00FFE7FFE7D5
:104B00000499022081F83D000498006880680190B3
:104B1000019820F077000190019820F47F400190E7
:104B2000019804990968886003980068009000283B
:104B300072D0FFE7009810286ED0FFE70098202879
:104B40006AD0FFE70098302866D0FFE70098402839
:104B500055D0FFE70098502837D0FFE7009860282D
:104B600040D0FFE7009870280BD0FFE70098B0F521
:104B7000805F05D0FFE70098B0F5005F16D052E0E7
:104B800055E004980068039B5A689968DB6802F056
:104B900057FC0498006880680190019840F0770005
:104BA0000190019804990968886040E004980068C1
:104BB000039B5A689968DB6802F042FC049801681C
:104BC000886840F48040886031E004980068039A67
:104BD0005168D26802F020FE04980068502102F06B
:104BE00049FC24E004980068039A5168D26802F0F6
:104BF0003BFE04980068602102F03CFC17E004983A
:104C00000068039A5168D26802F006FE04980068B2
:104C1000402102F02FFC0AE004980068039909681B
:104C200002F028FC03E001208DF80B00FFE7049957
:104C3000012081F83D00FFE70499002081F83C0045
:104C4000FFE79DF80B008DF81700FFE79DF81700B0
:104C500006B080BD81B0009001B0704781B0009077
:104C600001B0704780B582B001900198006800697A
:104C700000F002010020B0EB510F28D0FFE70198AF
:104C80000068C06800F002010020B0EB510F1DD099
:104C9000FFE7019801686FF00200086101990120A7
:104CA0000877019800688069800720B1FFE70198C4
:104CB000FFF7D4FF06E0019800F042FA019800F0F7
:104CC00085FBFFE7019900200877FFE7FFE70198E0
:104CD0000068006900F004010020B0EB910F29D0BA
:104CE000FFE701980068C06800F004010020B0EB05
:104CF000910F1ED0FFE7019801686FF00400086172
:104D000001990220087701980068806910F4407FBB
:104D100004D0FFE70198FFF7A1FF06E0019800F03B
:104D20000FFA019800F052FBFFE701990020087785
:104D3000FFE7FFE701980068006900F00801002024
:104D4000B0EBD10F28D0FFE701980068C06800F0F1
:104D500008010020B0EBD10F1DD0FFE701980168DA
:104D60006FF0080008610199042008770198006835
:104D7000C069800720B1FFE70198FFF76FFF06E0E9
:104D8000019800F0DDF9019800F020FBFFE70199A0
:104D900000200877FFE7FFE701980068006900F04E
:104DA00010010020B0EB111F29D0FFE70198006827
:104DB000C06800F010010020B0EB111F1ED0FFE70B
:104DC000019801686FF010000861019908200877C8
:104DD00001980068C06910F4407F04D0FFE7019893
:104DE000FFF73CFF06E0019800F0AAF9019800F0F7
:104DF000EDFAFFE7019900200877FFE7FFE7019848
:104E000000680069C00780B1FFE701980068C068CA
:104E1000C00748B1FFE7019801686FF00100086121
:104E2000019800F045FFFFE7FFE70198006800697F
:104E3000C1B20020B0EBD11F13D0FFE7019800688A
:104E4000C068C1B20020B0EBD11F09D0FFE70198C4
:104E500001686FF0800008610198FFF771F9FFE7C2
:104E6000FFE701980068006900F040010020B0EB06
:104E7000911F14D0FFE701980068C06800F040015E
:104E80000020B0EB911F09D0FFE7019801686FF097
:104E900040000861019800F031FFFFE7FFE701984B
:104EA0000068006900F020010020B0EB511F14D011
:104EB000FFE701980068C06800F020010020B0EB17
:104EC000511F09D0FFE7019801686FF020000861C9
:104ED0000198FFF739F9FFE7FFE702B080BD000056
:104EE00080B596B0159000201490139012901190F8
:104EF0001090159800680021C4F20101884249D140
:104F0000FFE7FFE700200F9043F63000C4F20200F5
:104F1000016841F001010160006800F001000F909C
:104F20000F98FFE7FFE700200E9043F63000C4F231
:104F30000200016841F010010160006800F01000FB
:104F40000E900E98FFE74FF48070109002200590AD
:104F50001190012007901290002106911391149056
:104F60000020C4F2020010A90891FDF7EBFF059B99
:104F7000069A079808994FF4005CCDF840C0119349
:104F800012901392149041F20000C4F20200FDF757
:104F9000D9FFD2E015980068B0F1804F20D1FFE72B
:104FA000FFE700200D9043F63000C4F202000168D4
:104FB00041F001010160006800F001000D900D98C2
:104FC000FFE7022010901190012012900021139110
:104FD00014900020C4F2020010A9FDF7B3FFABE06B
:104FE0001598006840F60001C4F20001884223D100
:104FF000FFE7FFE700200C9043F63000C4F2020008
:10500000016841F008010160006800F008000C90A0
:105010000C98FFE74FF4804010900220119001217E
:10502000129100211391149040F60040C4F2020046
:1050300010A9FDF787FF7EE01598006840F6004153
:10504000C4F20001884248D1FFE7FFE700200B903F
:1050500043F63000C4F20200016841F4807101603F
:10506000006800F480700B900B98FFE7FFE70020CA
:105070000A9043F63000C4F20200016841F080015A
:105080000160006800F080000A900A98FFE70121A3
:105090000191109102200390119012910021029130
:1050A0001391149042F20000C4F2020010A904917E
:1050B000FDF748FF019B029A039804994FF4A05C06
:1050C000CDF840C0119012931392149041F6004015
:1050D000C4F20200FDF736FF2CE01598006840F29C
:1050E0000041C4F20101884223D1FFE7FFE700201D
:1050F000099043F63000C4F20200016841F4807167
:105100000160006800F4807009900998FFE7A4200E
:105110001090022011900120129000201390032083
:10512000149042F20000C4F2020010A9FDF70AFF39
:10513000FFE7FFE7FFE7FFE7FFE716B080BD0000EE
:1051400081B0009001B0704780B586B004900391A3
:10515000029200208DF80700FFE7049890F83C00C9
:10516000012804D1FFE702208DF8170089E0049997
:10517000012081F83C00FFE7FFE7029800900C282F
:1051800000F270800099DFE801F0076D6D6D206D11
:105190006D6D3A6D6D6D530004980068039902F0CF
:1051A0007FF904980168886940F0080088610498D4
:1051B0000168886920F004008861039802690498F6
:1051C000016888691043886150E004980068039979
:1051D00002F0DCF904980168886940F40060886195
:1051E00004980168886920F48060886103980269E6
:1051F00004980168886940EA0220886136E00498D2
:105200000068039902F03CFA04980168C86940F00C
:105210000800C86104980168C86920F00400C861EA
:105220000398026904980168C8691043C8611DE0C9
:1052300004980068039902F09DFA04980168C8690F
:1052400040F40060C86104980168C86920F4806077
:10525000C8610398026904980168C86940EA02209D
:10526000C86103E001208DF80700FFE7FFE704991C
:10527000002081F83C00FFE79DF807008DF817003B
:10528000FFE79DF8170006B080BD000080B582B032
:105290000090009820B9FFE701208DF807003FE05B
:1052A000009890F83D0040B9FFE70099002081F890
:1052B0003C00009800F038F8FFE70099022081F8E0
:1052C0003D00009951F8040B01F0EAFE009901201D
:1052D00081F84600FFE70099012081F83E0000991F
:1052E00081F83F00009981F84000009981F8410061
:1052F000FFE7FFE70099012081F84200009981F85B
:105300004300009981F84400009981F84500FFE7C7
:105310000099012081F83D0000208DF80700FFE78B
:105320009DF8070002B080BD80B584B0039003985B
:10533000006840F60001C4F20001884244D1FFE752
:10534000FFE70020029043F64000C4F2020001682B
:1053500041F004010160006800F00400029002982E
:10536000FFE740F60C70C2F20000019046F2B8016F
:10537000C4F2020101604FF0806141604021816010
:105380000021C1604FF4806202614FF4006242610B
:105390004FF4005282614FF48072C2614FF40032C8
:1053A00002624162FDF7B4FC18B1FFE7FCF7A8FC0C
:1053B000FFE7FFE7039840F60C71C2F20001C162FB
:1053C00003988863FFE7FFE704B080BD80B582B033
:1053D00001900198006840F60041C4F20001884243
:1053E0000CD1FFE70198007F082807D1FFE740F2C2
:1053F0008400C2F2000002F0E9FFC0E001980068FA
:1054000040F60041C4F2000188420CD1FFE7019848
:10541000007F042807D1FFE740F21C70C2F20000B1
:1054200002F0D4FFAAE00198006840F20041C4F203
:10543000010188420CD1FFE70198007F082807D1BD
:10544000FFE740F2C810C2F2000002F0BFFF94E094
:105450000198006840F20041C4F2010188420CD179
:10546000FFE70198007F042807D1FFE740F66000BE
:10547000C2F2000002F0AAFF7EE00198006840F24C
:105480000041C4F2010188420CD1FFE70198007F7E
:10549000012807D1FFE740F20C30C2F2000002F011
:1054A00095FF68E0019800680021C4F2010188427C
:1054B0000CD1FFE70198007F042807D1FFE740F6F1
:1054C000A410C2F2000002F081FF53E001980068CE
:1054D000B0F1804F0CD1FFE70198007F022807D17F
:1054E000FFE740F25040C2F2000002F06FFF40E0E0
:1054F0000198006840F60001C4F2000188420CD116
:10550000FFE70198007F042807D1FFE740F6E82075
:10551000C2F2000002F05AFF2AE00198006840F64B
:105520000041C4F2000188420CD1FFE70198007FDE
:10553000012807D1FFE740F29450C2F2000002F0C8
:1055400045FF14E0019800680021C4F2010188427F
:105550000CD1FFE70198007F012807D1FFE740F653
:105560002C40C2F2000002F031FFFFE7FFE7FFE747
:10557000FFE7FFE7FFE7FFE7FFE7FFE7FFE702B02F
:1055800080BD000080B582B001900198006840F6AF
:105590000041C4F2000188420CD1FFE70198007F6E
:1055A000082807D1FFE740F28400C2F2000002F0B1
:1055B000C1FEC0E00198006840F60041C4F200015D
:1055C00088420CD1FFE70198007F042807D1FFE74C
:1055D00040F21C70C2F2000002F0ACFEAAE001989A
:1055E000006840F20041C4F2010188420CD1FFE79B
:1055F0000198007F082807D1FFE740F2C810C2F2E7
:10560000000002F097FE94E00198006840F200412B
:10561000C4F2010188420CD1FFE70198007F042801
:1056200007D1FFE740F66000C2F2000002F082FE00
:105630007EE00198006840F20041C4F20101884216
:105640000CD1FFE70198007F012807D1FFE740F266
:105650000C30C2F2000002F06DFE68E001980068B4
:105660000021C4F2010188420CD1FFE70198007FBC
:10567000042807D1FFE740F6A410C2F2000002F0B0
:1056800059FE53E001980068B0F1804F0CD1FFE75C
:105690000198007F022807D1FFE740F25040C2F294
:1056A000000002F047FE40E00198006840F600016B
:1056B000C4F2000188420CD1FFE70198007F042862
:1056C00007D1FFE740F6E820C2F2000002F032FE08
:1056D0002AE00198006840F60041C4F200018842C7
:1056E0000CD1FFE70198007F012807D1FFE740F2C6
:1056F0009450C2F2000002F01DFE14E00198006810
:105700000021C4F2010188420CD1FFE70198007F1B
:10571000012807D1FFE740F62C40C2F2000002F05A
:1057200009FEFFE7FFE7FFE7FFE7FFE7FFE7FFE728
:10573000FFE7FFE7FFE702B080BD000080B592B051
:1057400010900F910E92ADF8363000208DF8350094
:105750000F9828B9FFE7109890F83E000B901CE0D6
:105760000F98042805D1FFE7109890F83F000A90A1
:1057700010E00F98082805D1FFE7109890F8400036
:10578000099004E0109890F841000990FFE709980B
:105790000A90FFE70A980B90FFE70B98022804D1C4
:1057A000FFE702208DF84700B1E10F9828B9FFE725
:1057B000109890F83E0008901CE00F98042805D13E
:1057C000FFE7109890F83F00079010E00F98082826
:1057D00005D1FFE7109890F84000069004E010987B
:1057E00090F841000690FFE706980790FFE70798BA
:1057F0000890FFE70898012834D1FFE70E9840B9D8
:10580000FFE7BDF8360020B1FFE701208DF8470023
:105810007DE10F9828B9FFE71099022081F83E003A
:105820001EE00F98042806D1FFE71099022081F8A6
:105830003F00059012E00F98082806D1FFE7109965
:10584000022081F84000049005E01099022081F8C0
:1058500041000490FFE704980590FFE70598FFE7F3
:10586000FFE703E001208DF8470050E1FFE70F98C4
:1058700003900C2800F2B6800399DFE801F007B32B
:10588000B3B332B3B3B35DB3B3B388001098416A16
:1058900047F27520C0F60000C8631098416A47F2CD
:1058A0003130C0F6000008641098416A47F2A53014
:1058B000C0F60000C86410980268406A0E9934323D
:1058C000BDF83630FDF7DCFA20B1FFE701208DF896
:1058D00047001CE110980168C86840F40070C86077
:1058E00084E01098816A47F27520C0F60000C86312
:1058F0001098816A47F23130C0F6000008641098B1
:10590000816A47F2A530C0F60000C86410980268AA
:10591000806A0E993832BDF83630FDF7B1FA20B101
:10592000FFE701208DF84700F1E010980168C86892
:1059300040F48060C86059E01098C16A47F2752051
:10594000C0F60000C8631098C16A47F23130C0F653
:10595000000008641098C16A47F2A530C0F6000044
:10596000C86410980268C06A0E993C32BDF836309F
:10597000FDF786FA20B1FFE701208DF84700C6E069
:1059800010980168C86840F40060C8602EE0109864
:10599000016B47F27520C0F60000C8631098016BD8
:1059A00047F23130C0F6000008641098016B47F2EE
:1059B000A530C0F60000C86410980268006B0E990C
:1059C0004032BDF83630FDF75BFA20B1FFE7012029
:1059D0008DF847009BE010980168C86840F480503B
:1059E000C86003E001208DF83500FFE79DF8350021
:1059F000002840F08780FFE7109800680F99012287
:105A0000019201F01BFC0198109909680022C4F270
:105A10000102914202900CD0FFE7109800684FF607
:105A20000041CBF6FE710844B0FA80F040090290C4
:105A3000FFE70298C00738B1FFE710980168486C8B
:105A400040F400404864FFE7109800680021C4F269
:105A5000010188423CD0FFE710980068B0F1804F08
:105A600036D0FFE71098006840F20041C4F2000110
:105A700088422DD0FFE71098006840F60001C4F27C
:105A80000001884224D0FFE71098006840F60041EA
:105A9000C4F2000188421BD0FFE71098006840F272
:105AA0000041C4F20101884212D0FFE7109800685B
:105AB00044F20001C4F20101884209D0FFE71098C6
:105AC000006841F60001C4F20001884212D1FFE7EC
:105AD00010980068806800F007000C900C98062869
